{
  "_format": "hh-sol-artifact-1",
  "contractName": "StorageSharing",
  "sourceName": "contracts/StorageSharing.sol",
  "abi": [
    {
      "inputs": [
        {
          "internalType": "uint256",
          "name": "_priceInWeiPerByte",
          "type": "uint256"
        }
      ],
      "stateMutability": "nonpayable",
      "type": "constructor"
    },
    {
      "anonymous": false,
      "inputs": [
        {
          "indexed": true,
          "internalType": "uint256",
          "name": "id",
          "type": "uint256"
        }
      ],
      "name": "ServerCreated",
      "type": "event"
    },
    {
      "inputs": [
        {
          "components": [
            {
              "internalType": "uint256",
              "name": "id",
              "type": "uint256"
            },
            {
              "internalType": "uint256",
              "name": "size",
              "type": "uint256"
            },
            {
              "internalType": "string",
              "name": "name",
              "type": "string"
            },
            {
              "internalType": "uint256[]",
              "name": "serverIds",
              "type": "uint256[]"
            },
            {
              "internalType": "uint256[]",
              "name": "blockHashes",
              "type": "uint256[]"
            },
            {
              "internalType": "address",
              "name": "user",
              "type": "address"
            }
          ],
          "internalType": "struct StorageSharing.FileMetadata",
          "name": "fileMetadata",
          "type": "tuple"
        }
      ],
      "name": "buyStorage",
      "outputs": [],
      "stateMutability": "payable",
      "type": "function"
    },
    {
      "inputs": [
        {
          "internalType": "uint256",
          "name": "",
          "type": "uint256"
        }
      ],
      "name": "fileMetadatas",
      "outputs": [
        {
          "internalType": "uint256",
          "name": "id",
          "type": "uint256"
        },
        {
          "internalType": "uint256",
          "name": "size",
          "type": "uint256"
        },
        {
          "internalType": "string",
          "name": "name",
          "type": "string"
        },
        {
          "internalType": "address",
          "name": "user",
          "type": "address"
        }
      ],
      "stateMutability": "view",
      "type": "function"
    },
    {
      "inputs": [
        {
          "internalType": "uint256",
          "name": "id",
          "type": "uint256"
        }
      ],
      "name": "getFileMetadata",
      "outputs": [
        {
          "components": [
            {
              "internalType": "uint256",
              "name": "id",
              "type": "uint256"
            },
            {
              "internalType": "uint256",
              "name": "size",
              "type": "uint256"
            },
            {
              "internalType": "string",
              "name": "name",
              "type": "string"
            },
            {
              "internalType": "uint256[]",
              "name": "serverIds",
              "type": "uint256[]"
            },
            {
              "internalType": "uint256[]",
              "name": "blockHashes",
              "type": "uint256[]"
            },
            {
              "internalType": "address",
              "name": "user",
              "type": "address"
            }
          ],
          "internalType": "struct StorageSharing.FileMetadata",
          "name": "",
          "type": "tuple"
        }
      ],
      "stateMutability": "view",
      "type": "function"
    },
    {
      "inputs": [
        {
          "internalType": "uint256",
          "name": "id",
          "type": "uint256"
        }
      ],
      "name": "getServer",
      "outputs": [
        {
          "components": [
            {
              "internalType": "address payable",
              "name": "owner",
              "type": "address"
            },
            {
              "internalType": "string",
              "name": "socket",
              "type": "string"
            }
          ],
          "internalType": "struct StorageSharing.Server",
          "name": "",
          "type": "tuple"
        }
      ],
      "stateMutability": "view",
      "type": "function"
    },
    {
      "inputs": [
        {
          "internalType": "uint256",
          "name": "",
          "type": "uint256"
        }
      ],
      "name": "hashToSocket",
      "outputs": [
        {
          "internalType": "string",
          "name": "",
          "type": "string"
        }
      ],
      "stateMutability": "view",
      "type": "function"
    },
    {
      "inputs": [
        {
          "internalType": "address",
          "name": "user",
          "type": "address"
        }
      ],
      "name": "listFileMetadatas",
      "outputs": [
        {
          "components": [
            {
              "internalType": "uint256",
              "name": "id",
              "type": "uint256"
            },
            {
              "internalType": "uint256",
              "name": "size",
              "type": "uint256"
            },
            {
              "internalType": "string",
              "name": "name",
              "type": "string"
            },
            {
              "internalType": "uint256[]",
              "name": "serverIds",
              "type": "uint256[]"
            },
            {
              "internalType": "uint256[]",
              "name": "blockHashes",
              "type": "uint256[]"
            },
            {
              "internalType": "address",
              "name": "user",
              "type": "address"
            }
          ],
          "internalType": "struct StorageSharing.FileMetadata[]",
          "name": "",
          "type": "tuple[]"
        }
      ],
      "stateMutability": "view",
      "type": "function"
    },
    {
      "inputs": [],
      "name": "listServers",
      "outputs": [
        {
          "components": [
            {
              "internalType": "address payable",
              "name": "owner",
              "type": "address"
            },
            {
              "internalType": "string",
              "name": "socket",
              "type": "string"
            }
          ],
          "internalType": "struct StorageSharing.Server[]",
          "name": "",
          "type": "tuple[]"
        }
      ],
      "stateMutability": "view",
      "type": "function"
    },
    {
      "inputs": [],
      "name": "priceInWeiPerByte",
      "outputs": [
        {
          "internalType": "uint256",
          "name": "",
          "type": "uint256"
        }
      ],
      "stateMutability": "view",
      "type": "function"
    },
    {
      "inputs": [
        {
          "internalType": "string",
          "name": "_socket",
          "type": "string"
        }
      ],
      "name": "publishServer",
      "outputs": [],
      "stateMutability": "nonpayable",
      "type": "function"
    },
    {
      "inputs": [
        {
          "internalType": "uint256",
          "name": "",
          "type": "uint256"
        }
      ],
      "name": "servers",
      "outputs": [
        {
          "internalType": "address payable",
          "name": "owner",
          "type": "address"
        },
        {
          "internalType": "string",
          "name": "socket",
          "type": "string"
        }
      ],
      "stateMutability": "view",
      "type": "function"
    }
  ],
  "bytecode": "0x6080604052348015600f57600080fd5b506040516125bc3803806125bc8339818101604052810190602f91906071565b80600081905550506099565b600080fd5b6000819050919050565b6051816040565b8114605b57600080fd5b50565b600081519050606b81604a565b92915050565b6000602082840312156084576083603b565b5b6000609084828501605e565b91505092915050565b612514806100a86000396000f3fe6080604052600436106100915760003560e01c80636ccb28e2116100595780636ccb28e2146101815780637aaa789f146101be5780638bf797b1146101e9578063ab994cde14610229578063fb58d0ca1461026657610091565b8063092e9b56146100965780632091acc5146100bf578063546b270d146100db5780635cf0f3571461011857806367f4540714610156575b600080fd5b3480156100a257600080fd5b506100bd60048036038101906100b891906114a3565b6102a3565b005b6100d960048036038101906100d49190611746565b610421565b005b3480156100e757600080fd5b5061010260048036038101906100fd919061178f565b6107b4565b60405161010f9190611899565b60405180910390f35b34801561012457600080fd5b5061013f600480360381019061013a919061178f565b6108d8565b60405161014d929190611914565b60405180910390f35b34801561016257600080fd5b5061016b6109b4565b6040516101789190611a43565b60405180910390f35b34801561018d57600080fd5b506101a860048036038101906101a3919061178f565b610afb565b6040516101b59190611bc9565b60405180910390f35b3480156101ca57600080fd5b506101d3610ce3565b6040516101e09190611bfa565b60405180910390f35b3480156101f557600080fd5b50610210600480360381019061020b919061178f565b610ce9565b6040516102209493929190611c24565b60405180910390f35b34801561023557600080fd5b50610250600480360381019061024b9190611c70565b610dd1565b60405161025d9190611df6565b60405180910390f35b34801561027257600080fd5b5061028d6004803603810190610288919061178f565b6110d7565b60405161029a9190611e18565b60405180910390f35b60008151116102e7576040517f08c379a00000000000000000000000000000000000000000000000000000000081526004016102de90611e86565b60405180910390fd5b600060405180604001604052803373ffffffffffffffffffffffffffffffffffffffff168152602001838152509050600181908060018154018082558091505060019003906000526020600020906002020160009091909190915060008201518160000160006101000a81548173ffffffffffffffffffffffffffffffffffffffff021916908373ffffffffffffffffffffffffffffffffffffffff160217905550602082015181600101908161039e91906120b2565b5050506103e06040518060400160405280601b81526020017f5075626c6963207365727665722063726561746564206279202573000000000081525033611177565b600180805490506103f191906121b3565b7fdd5f635dabf126a19b738864921845bd6ea6d7beab818673af02d26417146d7360405160405180910390a25050565b60008054826020015161043491906121e7565b9050803414610478576040517f08c379a000000000000000000000000000000000000000000000000000000000815260040161046f90612275565b60405180910390fd5b60028054905082600001818152505060005b8260600151518110156106375760006001846060015183815181106104b2576104b1612295565b5b6020026020010151815481106104cb576104ca612295565b5b90600052602060002090600202016040518060400160405290816000820160009054906101000a900473ffffffffffffffffffffffffffffffffffffffff1673ffffffffffffffffffffffffffffffffffffffff1673ffffffffffffffffffffffffffffffffffffffff16815260200160018201805461054a90611ed5565b80601f016020809104026020016040519081016040528092919081815260200182805461057690611ed5565b80156105c35780601f10610598576101008083540402835291602001916105c3565b820191906000526020600020905b8154815290600101906020018083116105a657829003601f168201915b5050505050815250509050806000015173ffffffffffffffffffffffffffffffffffffffff166108fc856060015151856105fd91906122f3565b9081150290604051600060405180830381858888f19350505050158015610628573d6000803e3d6000fd5b5050808060010191505061048a565b5060005b8260800151518110156106d65760018360600151828151811061066157610660612295565b5b60200260200101518154811061067a57610679612295565b5b906000526020600020906002020160010160036000856080015184815181106106a6576106a5612295565b5b6020026020010151815260200190815260200160002090816106c8919061234f565b50808060010191505061063b565b5060028290806001815401808255809150506001900390600052602060002090600602016000909190919091506000820151816000015560208201518160010155604082015181600201908161072c91906120b2565b506060820151816003019080519060200190610749929190611259565b506080820151816004019080519060200190610766929190611259565b5060a08201518160050160006101000a81548173ffffffffffffffffffffffffffffffffffffffff021916908373ffffffffffffffffffffffffffffffffffffffff16021790555050505050565b6107bc6112a6565b600182815481106107d0576107cf612295565b5b90600052602060002090600202016040518060400160405290816000820160009054906101000a900473ffffffffffffffffffffffffffffffffffffffff1673ffffffffffffffffffffffffffffffffffffffff1673ffffffffffffffffffffffffffffffffffffffff16815260200160018201805461084f90611ed5565b80601f016020809104026020016040519081016040528092919081815260200182805461087b90611ed5565b80156108c85780601f1061089d576101008083540402835291602001916108c8565b820191906000526020600020905b8154815290600101906020018083116108ab57829003601f168201915b5050505050815250509050919050565b600181815481106108e857600080fd5b90600052602060002090600202016000915090508060000160009054906101000a900473ffffffffffffffffffffffffffffffffffffffff169080600101805461093190611ed5565b80601f016020809104026020016040519081016040528092919081815260200182805461095d90611ed5565b80156109aa5780601f1061097f576101008083540402835291602001916109aa565b820191906000526020600020905b81548152906001019060200180831161098d57829003601f168201915b5050505050905082565b60606001805480602002602001604051908101604052809291908181526020016000905b82821015610af257838290600052602060002090600202016040518060400160405290816000820160009054906101000a900473ffffffffffffffffffffffffffffffffffffffff1673ffffffffffffffffffffffffffffffffffffffff1673ffffffffffffffffffffffffffffffffffffffff168152602001600182018054610a6190611ed5565b80601f0160208091040260200160405190810160405280929190818152602001828054610a8d90611ed5565b8015610ada5780601f10610aaf57610100808354040283529160200191610ada565b820191906000526020600020905b815481529060010190602001808311610abd57829003601f168201915b505050505081525050815260200190600101906109d8565b50505050905090565b610b036112d6565b60028281548110610b1757610b16612295565b5b90600052602060002090600602016040518060c00160405290816000820154815260200160018201548152602001600282018054610b5490611ed5565b80601f0160208091040260200160405190810160405280929190818152602001828054610b8090611ed5565b8015610bcd5780601f10610ba257610100808354040283529160200191610bcd565b820191906000526020600020905b815481529060010190602001808311610bb057829003601f168201915b5050505050815260200160038201805480602002602001604051908101604052809291908181526020018280548015610c2557602002820191906000526020600020905b815481526020019060010190808311610c11575b5050505050815260200160048201805480602002602001604051908101604052809291908181526020018280548015610c7d57602002820191906000526020600020905b815481526020019060010190808311610c69575b505050505081526020016005820160009054906101000a900473ffffffffffffffffffffffffffffffffffffffff1673ffffffffffffffffffffffffffffffffffffffff1673ffffffffffffffffffffffffffffffffffffffff16815250509050919050565b60005481565b60028181548110610cf957600080fd5b9060005260206000209060060201600091509050806000015490806001015490806002018054610d2890611ed5565b80601f0160208091040260200160405190810160405280929190818152602001828054610d5490611ed5565b8015610da15780601f10610d7657610100808354040283529160200191610da1565b820191906000526020600020905b815481529060010190602001808311610d8457829003601f168201915b5050505050908060050160009054906101000a900473ffffffffffffffffffffffffffffffffffffffff16905084565b6060600060028054905067ffffffffffffffff811115610df457610df3611378565b5b604051908082528060200260200182016040528015610e2d57816020015b610e1a6112d6565b815260200190600190039081610e125790505b5090506000805b6002805490508110156110cc578473ffffffffffffffffffffffffffffffffffffffff1660028281548110610e6c57610e6b612295565b5b906000526020600020906006020160050160009054906101000a900473ffffffffffffffffffffffffffffffffffffffff1673ffffffffffffffffffffffffffffffffffffffff16036110bf5760028181548110610ecd57610ecc612295565b5b90600052602060002090600602016040518060c00160405290816000820154815260200160018201548152602001600282018054610f0a90611ed5565b80601f0160208091040260200160405190810160405280929190818152602001828054610f3690611ed5565b8015610f835780601f10610f5857610100808354040283529160200191610f83565b820191906000526020600020905b815481529060010190602001808311610f6657829003601f168201915b5050505050815260200160038201805480602002602001604051908101604052809291908181526020018280548015610fdb57602002820191906000526020600020905b815481526020019060010190808311610fc7575b505050505081526020016004820180548060200260200160405190810160405280929190818152602001828054801561103357602002820191906000526020600020905b81548152602001906001019080831161101f575b505050505081526020016005820160009054906101000a900473ffffffffffffffffffffffffffffffffffffffff1673ffffffffffffffffffffffffffffffffffffffff1673ffffffffffffffffffffffffffffffffffffffff16815250508383815181106110a5576110a4612295565b5b602002602001018190525081806110bb90612437565b9250505b8080600101915050610e34565b508192505050919050565b600360205280600052604060002060009150905080546110f690611ed5565b80601f016020809104026020016040519081016040528092919081815260200182805461112290611ed5565b801561116f5780601f106111445761010080835404028352916020019161116f565b820191906000526020600020905b81548152906001019060200180831161115257829003601f168201915b505050505081565b61120f828260405160240161118d92919061247f565b6040516020818303038152906040527f319af333000000000000000000000000000000000000000000000000000000007bffffffffffffffffffffffffffffffffffffffffffffffffffffffff19166020820180517bffffffffffffffffffffffffffffffffffffffffffffffffffffffff8381831617835250505050611213565b5050565b61122a8161122261122d61124e565b63ffffffff16565b50565b60006a636f6e736f6c652e6c6f679050600080835160208501845afa505050565b611322819050919050565b828054828255906000526020600020908101928215611295579160200282015b82811115611294578251825591602001919060010190611279565b5b5090506112a2919061132c565b5090565b6040518060400160405280600073ffffffffffffffffffffffffffffffffffffffff168152602001606081525090565b6040518060c001604052806000815260200160008152602001606081526020016060815260200160608152602001600073ffffffffffffffffffffffffffffffffffffffff1681525090565b61132a6124af565b565b5b8082111561134557600081600090555060010161132d565b5090565b6000604051905090565b600080fd5b600080fd5b600080fd5b600080fd5b6000601f19601f8301169050919050565b7f4e487b7100000000000000000000000000000000000000000000000000000000600052604160045260246000fd5b6113b082611367565b810181811067ffffffffffffffff821117156113cf576113ce611378565b5b80604052505050565b60006113e2611349565b90506113ee82826113a7565b919050565b600067ffffffffffffffff82111561140e5761140d611378565b5b61141782611367565b9050602081019050919050565b82818337600083830152505050565b6000611446611441846113f3565b6113d8565b90508281526020810184848401111561146257611461611362565b5b61146d848285611424565b509392505050565b600082601f83011261148a5761148961135d565b5b813561149a848260208601611433565b91505092915050565b6000602082840312156114b9576114b8611353565b5b600082013567ffffffffffffffff8111156114d7576114d6611358565b5b6114e384828501611475565b91505092915050565b600080fd5b600080fd5b6000819050919050565b611509816114f6565b811461151457600080fd5b50565b60008135905061152681611500565b92915050565b600067ffffffffffffffff82111561154757611546611378565b5b602082029050602081019050919050565b600080fd5b600061157061156b8461152c565b6113d8565b9050808382526020820190506020840283018581111561159357611592611558565b5b835b818110156115bc57806115a88882611517565b845260208401935050602081019050611595565b5050509392505050565b600082601f8301126115db576115da61135d565b5b81356115eb84826020860161155d565b91505092915050565b600073ffffffffffffffffffffffffffffffffffffffff82169050919050565b600061161f826115f4565b9050919050565b61162f81611614565b811461163a57600080fd5b50565b60008135905061164c81611626565b92915050565b600060c08284031215611668576116676114ec565b5b61167260c06113d8565b9050600061168284828501611517565b600083015250602061169684828501611517565b602083015250604082013567ffffffffffffffff8111156116ba576116b96114f1565b5b6116c684828501611475565b604083015250606082013567ffffffffffffffff8111156116ea576116e96114f1565b5b6116f6848285016115c6565b606083015250608082013567ffffffffffffffff81111561171a576117196114f1565b5b611726848285016115c6565b60808301525060a061173a8482850161163d565b60a08301525092915050565b60006020828403121561175c5761175b611353565b5b600082013567ffffffffffffffff81111561177a57611779611358565b5b61178684828501611652565b91505092915050565b6000602082840312156117a5576117a4611353565b5b60006117b384828501611517565b91505092915050565b60006117c7826115f4565b9050919050565b6117d7816117bc565b82525050565b600081519050919050565b600082825260208201905092915050565b60005b838110156118175780820151818401526020810190506117fc565b60008484015250505050565b600061182e826117dd565b61183881856117e8565b93506118488185602086016117f9565b61185181611367565b840191505092915050565b600060408301600083015161187460008601826117ce565b506020830151848203602086015261188c8282611823565b9150508091505092915050565b600060208201905081810360008301526118b3818461185c565b905092915050565b6118c4816117bc565b82525050565b600082825260208201905092915050565b60006118e6826117dd565b6118f081856118ca565b93506119008185602086016117f9565b61190981611367565b840191505092915050565b600060408201905061192960008301856118bb565b818103602083015261193b81846118db565b90509392505050565b600081519050919050565b600082825260208201905092915050565b6000819050602082019050919050565b600060408301600083015161198860008601826117ce565b50602083015184820360208601526119a08282611823565b9150508091505092915050565b60006119b98383611970565b905092915050565b6000602082019050919050565b60006119d982611944565b6119e3818561194f565b9350836020820285016119f585611960565b8060005b85811015611a315784840389528151611a1285826119ad565b9450611a1d836119c1565b925060208a019950506001810190506119f9565b50829750879550505050505092915050565b60006020820190508181036000830152611a5d81846119ce565b905092915050565b611a6e816114f6565b82525050565b600081519050919050565b600082825260208201905092915050565b6000819050602082019050919050565b6000611aac8383611a65565b60208301905092915050565b6000602082019050919050565b6000611ad082611a74565b611ada8185611a7f565b9350611ae583611a90565b8060005b83811015611b16578151611afd8882611aa0565b9750611b0883611ab8565b925050600181019050611ae9565b5085935050505092915050565b611b2c81611614565b82525050565b600060c083016000830151611b4a6000860182611a65565b506020830151611b5d6020860182611a65565b5060408301518482036040860152611b758282611823565b91505060608301518482036060860152611b8f8282611ac5565b91505060808301518482036080860152611ba98282611ac5565b91505060a0830151611bbe60a0860182611b23565b508091505092915050565b60006020820190508181036000830152611be38184611b32565b905092915050565b611bf4816114f6565b82525050565b6000602082019050611c0f6000830184611beb565b92915050565b611c1e81611614565b82525050565b6000608082019050611c396000830187611beb565b611c466020830186611beb565b8181036040830152611c5881856118db565b9050611c676060830184611c15565b95945050505050565b600060208284031215611c8657611c85611353565b5b6000611c948482850161163d565b91505092915050565b600081519050919050565b600082825260208201905092915050565b6000819050602082019050919050565b600060c083016000830151611ce16000860182611a65565b506020830151611cf46020860182611a65565b5060408301518482036040860152611d0c8282611823565b91505060608301518482036060860152611d268282611ac5565b91505060808301518482036080860152611d408282611ac5565b91505060a0830151611d5560a0860182611b23565b508091505092915050565b6000611d6c8383611cc9565b905092915050565b6000602082019050919050565b6000611d8c82611c9d565b611d968185611ca8565b935083602082028501611da885611cb9565b8060005b85811015611de45784840389528151611dc58582611d60565b9450611dd083611d74565b925060208a01995050600181019050611dac565b50829750879550505050505092915050565b60006020820190508181036000830152611e108184611d81565b905092915050565b60006020820190508181036000830152611e3281846118db565b905092915050565b7f536f636b65742069732072657175697265640000000000000000000000000000600082015250565b6000611e706012836118ca565b9150611e7b82611e3a565b602082019050919050565b60006020820190508181036000830152611e9f81611e63565b9050919050565b7f4e487b7100000000000000000000000000000000000000000000000000000000600052602260045260246000fd5b60006002820490506001821680611eed57607f821691505b602082108103611f0057611eff611ea6565b5b50919050565b60008190508160005260206000209050919050565b60006020601f8301049050919050565b600082821b905092915050565b600060088302611f687fffffffffffffffffffffffffffffffffffffffffffffffffffffffffffffffff82611f2b565b611f728683611f2b565b95508019841693508086168417925050509392505050565b6000819050919050565b6000611faf611faa611fa5846114f6565b611f8a565b6114f6565b9050919050565b6000819050919050565b611fc983611f94565b611fdd611fd582611fb6565b848454611f38565b825550505050565b600090565b611ff2611fe5565b611ffd818484611fc0565b505050565b5b8181101561202157612016600082611fea565b600181019050612003565b5050565b601f8211156120665761203781611f06565b61204084611f1b565b8101602085101561204f578190505b61206361205b85611f1b565b830182612002565b50505b505050565b600082821c905092915050565b60006120896000198460080261206b565b1980831691505092915050565b60006120a28383612078565b9150826002028217905092915050565b6120bb826117dd565b67ffffffffffffffff8111156120d4576120d3611378565b5b6120de8254611ed5565b6120e9828285612025565b600060209050601f83116001811461211c576000841561210a578287015190505b6121148582612096565b86555061217c565b601f19841661212a86611f06565b60005b828110156121525784890151825560018201915060208501945060208101905061212d565b8683101561216f578489015161216b601f891682612078565b8355505b6001600288020188555050505b505050505050565b7f4e487b7100000000000000000000000000000000000000000000000000000000600052601160045260246000fd5b60006121be826114f6565b91506121c9836114f6565b92508282039050818111156121e1576121e0612184565b5b92915050565b60006121f2826114f6565b91506121fd836114f6565b925082820261220b816114f6565b9150828204841483151761222257612221612184565b5b5092915050565b7f496e73756666696369656e742066756e64730000000000000000000000000000600082015250565b600061225f6012836118ca565b915061226a82612229565b602082019050919050565b6000602082019050818103600083015261228e81612252565b9050919050565b7f4e487b7100000000000000000000000000000000000000000000000000000000600052603260045260246000fd5b7f4e487b7100000000000000000000000000000000000000000000000000000000600052601260045260246000fd5b60006122fe826114f6565b9150612309836114f6565b925082612319576123186122c4565b5b828204905092915050565b60008154905061233381611ed5565b9050919050565b60008190508160005260206000209050919050565b81810361235d575050612435565b61236682612324565b67ffffffffffffffff81111561237f5761237e611378565b5b6123898254611ed5565b612394828285612025565b6000601f8311600181146123c357600084156123b1578287015490505b6123bb8582612096565b86555061242e565b601f1984166123d18761233a565b96506123dc86611f06565b60005b82811015612404578489015482556001820191506001850194506020810190506123df565b86831015612421578489015461241d601f891682612078565b8355505b6001600288020188555050505b5050505050505b565b6000612442826114f6565b91507fffffffffffffffffffffffffffffffffffffffffffffffffffffffffffffffff820361247457612473612184565b5b600182019050919050565b6000604082019050818103600083015261249981856118db565b90506124a86020830184611c15565b9392505050565b7f4e487b7100000000000000000000000000000000000000000000000000000000600052605160045260246000fdfea26469706673582212204143f1a4837db7d60aca59e3b1c0cea1e385e2c6ffa0193f8cafddb3474449c664736f6c634300081b0033",
  "linkReferences": {},
  "deployedLinkReferences": {}
}