{
  "_format": "hh-sol-artifact-1",
  "contractName": "StorageSharing",
  "sourceName": "contracts/StorageSharing.sol",
  "abi": [
    {
      "inputs": [
        {
          "internalType": "uint256",
          "name": "_priceInWeiPerByte",
          "type": "uint256"
        }
      ],
      "stateMutability": "nonpayable",
      "type": "constructor"
    },
    {
      "anonymous": false,
      "inputs": [
        {
          "indexed": true,
          "internalType": "uint256",
          "name": "id",
          "type": "uint256"
        }
      ],
      "name": "ServerCreated",
      "type": "event"
    },
    {
      "inputs": [
        {
          "components": [
            {
              "internalType": "uint256",
              "name": "id",
              "type": "uint256"
            },
            {
              "internalType": "uint256",
              "name": "size",
              "type": "uint256"
            },
            {
              "internalType": "string",
              "name": "name",
              "type": "string"
            },
            {
              "internalType": "uint256[]",
              "name": "serverIds",
              "type": "uint256[]"
            },
            {
              "internalType": "uint256[]",
              "name": "blockHashes",
              "type": "uint256[]"
            },
            {
              "internalType": "address",
              "name": "user",
              "type": "address"
            }
          ],
          "internalType": "struct StorageSharing.FileMetadata",
          "name": "fileMetadata",
          "type": "tuple"
        }
      ],
      "name": "buyStorage",
      "outputs": [],
      "stateMutability": "payable",
      "type": "function"
    },
    {
      "inputs": [
        {
          "internalType": "uint256",
          "name": "",
          "type": "uint256"
        }
      ],
      "name": "fileMetadatas",
      "outputs": [
        {
          "internalType": "uint256",
          "name": "id",
          "type": "uint256"
        },
        {
          "internalType": "uint256",
          "name": "size",
          "type": "uint256"
        },
        {
          "internalType": "string",
          "name": "name",
          "type": "string"
        },
        {
          "internalType": "address",
          "name": "user",
          "type": "address"
        }
      ],
      "stateMutability": "view",
      "type": "function"
    },
    {
      "inputs": [
        {
          "internalType": "uint256",
          "name": "id",
          "type": "uint256"
        }
      ],
      "name": "getFileMetadata",
      "outputs": [
        {
          "components": [
            {
              "internalType": "uint256",
              "name": "id",
              "type": "uint256"
            },
            {
              "internalType": "uint256",
              "name": "size",
              "type": "uint256"
            },
            {
              "internalType": "string",
              "name": "name",
              "type": "string"
            },
            {
              "internalType": "uint256[]",
              "name": "serverIds",
              "type": "uint256[]"
            },
            {
              "internalType": "uint256[]",
              "name": "blockHashes",
              "type": "uint256[]"
            },
            {
              "internalType": "address",
              "name": "user",
              "type": "address"
            }
          ],
          "internalType": "struct StorageSharing.FileMetadata",
          "name": "",
          "type": "tuple"
        }
      ],
      "stateMutability": "view",
      "type": "function"
    },
    {
      "inputs": [
        {
          "internalType": "uint256",
          "name": "id",
          "type": "uint256"
        }
      ],
      "name": "getServer",
      "outputs": [
        {
          "components": [
            {
              "internalType": "address payable",
              "name": "owner",
              "type": "address"
            },
            {
              "internalType": "string",
              "name": "socket",
              "type": "string"
            }
          ],
          "internalType": "struct StorageSharing.Server",
          "name": "",
          "type": "tuple"
        }
      ],
      "stateMutability": "view",
      "type": "function"
    },
    {
      "inputs": [
        {
          "internalType": "address",
          "name": "user",
          "type": "address"
        }
      ],
      "name": "listFileMetadatas",
      "outputs": [
        {
          "components": [
            {
              "internalType": "uint256",
              "name": "id",
              "type": "uint256"
            },
            {
              "internalType": "uint256",
              "name": "size",
              "type": "uint256"
            },
            {
              "internalType": "string",
              "name": "name",
              "type": "string"
            },
            {
              "internalType": "uint256[]",
              "name": "serverIds",
              "type": "uint256[]"
            },
            {
              "internalType": "uint256[]",
              "name": "blockHashes",
              "type": "uint256[]"
            },
            {
              "internalType": "address",
              "name": "user",
              "type": "address"
            }
          ],
          "internalType": "struct StorageSharing.FileMetadata[]",
          "name": "",
          "type": "tuple[]"
        }
      ],
      "stateMutability": "view",
      "type": "function"
    },
    {
      "inputs": [],
      "name": "listServers",
      "outputs": [
        {
          "components": [
            {
              "internalType": "address payable",
              "name": "owner",
              "type": "address"
            },
            {
              "internalType": "string",
              "name": "socket",
              "type": "string"
            }
          ],
          "internalType": "struct StorageSharing.Server[]",
          "name": "",
          "type": "tuple[]"
        }
      ],
      "stateMutability": "view",
      "type": "function"
    },
    {
      "inputs": [],
      "name": "priceInWeiPerByte",
      "outputs": [
        {
          "internalType": "uint256",
          "name": "",
          "type": "uint256"
        }
      ],
      "stateMutability": "view",
      "type": "function"
    },
    {
      "inputs": [
        {
          "internalType": "string",
          "name": "_socket",
          "type": "string"
        }
      ],
      "name": "publishServer",
      "outputs": [],
      "stateMutability": "nonpayable",
      "type": "function"
    },
    {
      "inputs": [
        {
          "internalType": "uint256",
          "name": "",
          "type": "uint256"
        }
      ],
      "name": "servers",
      "outputs": [
        {
          "internalType": "address payable",
          "name": "owner",
          "type": "address"
        },
        {
          "internalType": "string",
          "name": "socket",
          "type": "string"
        }
      ],
      "stateMutability": "view",
      "type": "function"
    }
  ],
  "bytecode": "0x6080604052348015600f57600080fd5b506040516123003803806123008339818101604052810190602f91906071565b80600081905550506099565b600080fd5b6000819050919050565b6051816040565b8114605b57600080fd5b50565b600081519050606b81604a565b92915050565b6000602082840312156084576083603b565b5b6000609084828501605e565b91505092915050565b612258806100a86000396000f3fe6080604052600436106100865760003560e01c806367f454071161005957806367f454071461014b5780636ccb28e2146101765780637aaa789f146101b35780638bf797b1146101de578063ab994cde1461021e57610086565b8063092e9b561461008b5780632091acc5146100b4578063546b270d146100d05780635cf0f3571461010d575b600080fd5b34801561009757600080fd5b506100b260048036038101906100ad919061131c565b61025b565b005b6100ce60048036038101906100c991906115bf565b6103d9565b005b3480156100dc57600080fd5b506100f760048036038101906100f29190611608565b6106cd565b6040516101049190611712565b60405180910390f35b34801561011957600080fd5b50610134600480360381019061012f9190611608565b6107f1565b60405161014292919061178d565b60405180910390f35b34801561015757600080fd5b506101606108cd565b60405161016d91906118bc565b60405180910390f35b34801561018257600080fd5b5061019d60048036038101906101989190611608565b610a14565b6040516101aa9190611a42565b60405180910390f35b3480156101bf57600080fd5b506101c8610bfc565b6040516101d59190611a73565b60405180910390f35b3480156101ea57600080fd5b5061020560048036038101906102009190611608565b610c02565b6040516102159493929190611a9d565b60405180910390f35b34801561022a57600080fd5b5061024560048036038101906102409190611ae9565b610cea565b6040516102529190611c6f565b60405180910390f35b600081511161029f576040517f08c379a000000000000000000000000000000000000000000000000000000000815260040161029690611cdd565b60405180910390fd5b600060405180604001604052803373ffffffffffffffffffffffffffffffffffffffff168152602001838152509050600181908060018154018082558091505060019003906000526020600020906002020160009091909190915060008201518160000160006101000a81548173ffffffffffffffffffffffffffffffffffffffff021916908373ffffffffffffffffffffffffffffffffffffffff16021790555060208201518160010190816103569190611f09565b5050506103986040518060400160405280601b81526020017f5075626c6963207365727665722063726561746564206279202573000000000081525033610ff0565b600180805490506103a9919061200a565b7fdd5f635dabf126a19b738864921845bd6ea6d7beab818673af02d26417146d7360405160405180910390a25050565b6000805482602001516103ec919061203e565b9050803414610430576040517f08c379a0000000000000000000000000000000000000000000000000000000008152600401610427906120cc565b60405180910390fd5b60005b8260600151518110156105e057600060018460600151838151811061045b5761045a6120ec565b5b602002602001015181548110610474576104736120ec565b5b90600052602060002090600202016040518060400160405290816000820160009054906101000a900473ffffffffffffffffffffffffffffffffffffffff1673ffffffffffffffffffffffffffffffffffffffff1673ffffffffffffffffffffffffffffffffffffffff1681526020016001820180546104f390611d2c565b80601f016020809104026020016040519081016040528092919081815260200182805461051f90611d2c565b801561056c5780601f106105415761010080835404028352916020019161056c565b820191906000526020600020905b81548152906001019060200180831161054f57829003601f168201915b5050505050815250509050806000015173ffffffffffffffffffffffffffffffffffffffff166108fc856060015151856105a6919061214a565b9081150290604051600060405180830381858888f193505050501580156105d1573d6000803e3d6000fd5b50508080600101915050610433565b506002805490508260000181815250506002829080600181540180825580915050600190039060005260206000209060060201600090919091909150600082015181600001556020820151816001015560408201518160020190816106459190611f09565b5060608201518160030190805190602001906106629291906110d2565b50608082015181600401908051906020019061067f9291906110d2565b5060a08201518160050160006101000a81548173ffffffffffffffffffffffffffffffffffffffff021916908373ffffffffffffffffffffffffffffffffffffffff16021790555050505050565b6106d561111f565b600182815481106106e9576106e86120ec565b5b90600052602060002090600202016040518060400160405290816000820160009054906101000a900473ffffffffffffffffffffffffffffffffffffffff1673ffffffffffffffffffffffffffffffffffffffff1673ffffffffffffffffffffffffffffffffffffffff16815260200160018201805461076890611d2c565b80601f016020809104026020016040519081016040528092919081815260200182805461079490611d2c565b80156107e15780601f106107b6576101008083540402835291602001916107e1565b820191906000526020600020905b8154815290600101906020018083116107c457829003601f168201915b5050505050815250509050919050565b6001818154811061080157600080fd5b90600052602060002090600202016000915090508060000160009054906101000a900473ffffffffffffffffffffffffffffffffffffffff169080600101805461084a90611d2c565b80601f016020809104026020016040519081016040528092919081815260200182805461087690611d2c565b80156108c35780601f10610898576101008083540402835291602001916108c3565b820191906000526020600020905b8154815290600101906020018083116108a657829003601f168201915b5050505050905082565b60606001805480602002602001604051908101604052809291908181526020016000905b82821015610a0b57838290600052602060002090600202016040518060400160405290816000820160009054906101000a900473ffffffffffffffffffffffffffffffffffffffff1673ffffffffffffffffffffffffffffffffffffffff1673ffffffffffffffffffffffffffffffffffffffff16815260200160018201805461097a90611d2c565b80601f01602080910402602001604051908101604052809291908181526020018280546109a690611d2c565b80156109f35780601f106109c8576101008083540402835291602001916109f3565b820191906000526020600020905b8154815290600101906020018083116109d657829003601f168201915b505050505081525050815260200190600101906108f1565b50505050905090565b610a1c61114f565b60028281548110610a3057610a2f6120ec565b5b90600052602060002090600602016040518060c00160405290816000820154815260200160018201548152602001600282018054610a6d90611d2c565b80601f0160208091040260200160405190810160405280929190818152602001828054610a9990611d2c565b8015610ae65780601f10610abb57610100808354040283529160200191610ae6565b820191906000526020600020905b815481529060010190602001808311610ac957829003601f168201915b5050505050815260200160038201805480602002602001604051908101604052809291908181526020018280548015610b3e57602002820191906000526020600020905b815481526020019060010190808311610b2a575b5050505050815260200160048201805480602002602001604051908101604052809291908181526020018280548015610b9657602002820191906000526020600020905b815481526020019060010190808311610b82575b505050505081526020016005820160009054906101000a900473ffffffffffffffffffffffffffffffffffffffff1673ffffffffffffffffffffffffffffffffffffffff1673ffffffffffffffffffffffffffffffffffffffff16815250509050919050565b60005481565b60028181548110610c1257600080fd5b9060005260206000209060060201600091509050806000015490806001015490806002018054610c4190611d2c565b80601f0160208091040260200160405190810160405280929190818152602001828054610c6d90611d2c565b8015610cba5780601f10610c8f57610100808354040283529160200191610cba565b820191906000526020600020905b815481529060010190602001808311610c9d57829003601f168201915b5050505050908060050160009054906101000a900473ffffffffffffffffffffffffffffffffffffffff16905084565b6060600060028054905067ffffffffffffffff811115610d0d57610d0c6111f1565b5b604051908082528060200260200182016040528015610d4657816020015b610d3361114f565b815260200190600190039081610d2b5790505b5090506000805b600280549050811015610fe5578473ffffffffffffffffffffffffffffffffffffffff1660028281548110610d8557610d846120ec565b5b906000526020600020906006020160050160009054906101000a900473ffffffffffffffffffffffffffffffffffffffff1673ffffffffffffffffffffffffffffffffffffffff1603610fd85760028181548110610de657610de56120ec565b5b90600052602060002090600602016040518060c00160405290816000820154815260200160018201548152602001600282018054610e2390611d2c565b80601f0160208091040260200160405190810160405280929190818152602001828054610e4f90611d2c565b8015610e9c5780601f10610e7157610100808354040283529160200191610e9c565b820191906000526020600020905b815481529060010190602001808311610e7f57829003601f168201915b5050505050815260200160038201805480602002602001604051908101604052809291908181526020018280548015610ef457602002820191906000526020600020905b815481526020019060010190808311610ee0575b5050505050815260200160048201805480602002602001604051908101604052809291908181526020018280548015610f4c57602002820191906000526020600020905b815481526020019060010190808311610f38575b505050505081526020016005820160009054906101000a900473ffffffffffffffffffffffffffffffffffffffff1673ffffffffffffffffffffffffffffffffffffffff1673ffffffffffffffffffffffffffffffffffffffff1681525050838381518110610fbe57610fbd6120ec565b5b60200260200101819052508180610fd49061217b565b9250505b8080600101915050610d4d565b508192505050919050565b61108882826040516024016110069291906121c3565b6040516020818303038152906040527f319af333000000000000000000000000000000000000000000000000000000007bffffffffffffffffffffffffffffffffffffffffffffffffffffffff19166020820180517bffffffffffffffffffffffffffffffffffffffffffffffffffffffff838183161783525050505061108c565b5050565b6110a38161109b6110a66110c7565b63ffffffff16565b50565b60006a636f6e736f6c652e6c6f679050600080835160208501845afa505050565b61119b819050919050565b82805482825590600052602060002090810192821561110e579160200282015b8281111561110d5782518255916020019190600101906110f2565b5b50905061111b91906111a5565b5090565b6040518060400160405280600073ffffffffffffffffffffffffffffffffffffffff168152602001606081525090565b6040518060c001604052806000815260200160008152602001606081526020016060815260200160608152602001600073ffffffffffffffffffffffffffffffffffffffff1681525090565b6111a36121f3565b565b5b808211156111be5760008160009055506001016111a6565b5090565b6000604051905090565b600080fd5b600080fd5b600080fd5b600080fd5b6000601f19601f8301169050919050565b7f4e487b7100000000000000000000000000000000000000000000000000000000600052604160045260246000fd5b611229826111e0565b810181811067ffffffffffffffff82111715611248576112476111f1565b5b80604052505050565b600061125b6111c2565b90506112678282611220565b919050565b600067ffffffffffffffff821115611287576112866111f1565b5b611290826111e0565b9050602081019050919050565b82818337600083830152505050565b60006112bf6112ba8461126c565b611251565b9050828152602081018484840111156112db576112da6111db565b5b6112e684828561129d565b509392505050565b600082601f830112611303576113026111d6565b5b81356113138482602086016112ac565b91505092915050565b600060208284031215611332576113316111cc565b5b600082013567ffffffffffffffff8111156113505761134f6111d1565b5b61135c848285016112ee565b91505092915050565b600080fd5b600080fd5b6000819050919050565b6113828161136f565b811461138d57600080fd5b50565b60008135905061139f81611379565b92915050565b600067ffffffffffffffff8211156113c0576113bf6111f1565b5b602082029050602081019050919050565b600080fd5b60006113e96113e4846113a5565b611251565b9050808382526020820190506020840283018581111561140c5761140b6113d1565b5b835b8181101561143557806114218882611390565b84526020840193505060208101905061140e565b5050509392505050565b600082601f830112611454576114536111d6565b5b81356114648482602086016113d6565b91505092915050565b600073ffffffffffffffffffffffffffffffffffffffff82169050919050565b60006114988261146d565b9050919050565b6114a88161148d565b81146114b357600080fd5b50565b6000813590506114c58161149f565b92915050565b600060c082840312156114e1576114e0611365565b5b6114eb60c0611251565b905060006114fb84828501611390565b600083015250602061150f84828501611390565b602083015250604082013567ffffffffffffffff8111156115335761153261136a565b5b61153f848285016112ee565b604083015250606082013567ffffffffffffffff8111156115635761156261136a565b5b61156f8482850161143f565b606083015250608082013567ffffffffffffffff8111156115935761159261136a565b5b61159f8482850161143f565b60808301525060a06115b3848285016114b6565b60a08301525092915050565b6000602082840312156115d5576115d46111cc565b5b600082013567ffffffffffffffff8111156115f3576115f26111d1565b5b6115ff848285016114cb565b91505092915050565b60006020828403121561161e5761161d6111cc565b5b600061162c84828501611390565b91505092915050565b60006116408261146d565b9050919050565b61165081611635565b82525050565b600081519050919050565b600082825260208201905092915050565b60005b83811015611690578082015181840152602081019050611675565b60008484015250505050565b60006116a782611656565b6116b18185611661565b93506116c1818560208601611672565b6116ca816111e0565b840191505092915050565b60006040830160008301516116ed6000860182611647565b5060208301518482036020860152611705828261169c565b9150508091505092915050565b6000602082019050818103600083015261172c81846116d5565b905092915050565b61173d81611635565b82525050565b600082825260208201905092915050565b600061175f82611656565b6117698185611743565b9350611779818560208601611672565b611782816111e0565b840191505092915050565b60006040820190506117a26000830185611734565b81810360208301526117b48184611754565b90509392505050565b600081519050919050565b600082825260208201905092915050565b6000819050602082019050919050565b60006040830160008301516118016000860182611647565b5060208301518482036020860152611819828261169c565b9150508091505092915050565b600061183283836117e9565b905092915050565b6000602082019050919050565b6000611852826117bd565b61185c81856117c8565b93508360208202850161186e856117d9565b8060005b858110156118aa578484038952815161188b8582611826565b94506118968361183a565b925060208a01995050600181019050611872565b50829750879550505050505092915050565b600060208201905081810360008301526118d68184611847565b905092915050565b6118e78161136f565b82525050565b600081519050919050565b600082825260208201905092915050565b6000819050602082019050919050565b600061192583836118de565b60208301905092915050565b6000602082019050919050565b6000611949826118ed565b61195381856118f8565b935061195e83611909565b8060005b8381101561198f5781516119768882611919565b975061198183611931565b925050600181019050611962565b5085935050505092915050565b6119a58161148d565b82525050565b600060c0830160008301516119c360008601826118de565b5060208301516119d660208601826118de565b50604083015184820360408601526119ee828261169c565b91505060608301518482036060860152611a08828261193e565b91505060808301518482036080860152611a22828261193e565b91505060a0830151611a3760a086018261199c565b508091505092915050565b60006020820190508181036000830152611a5c81846119ab565b905092915050565b611a6d8161136f565b82525050565b6000602082019050611a886000830184611a64565b92915050565b611a978161148d565b82525050565b6000608082019050611ab26000830187611a64565b611abf6020830186611a64565b8181036040830152611ad18185611754565b9050611ae06060830184611a8e565b95945050505050565b600060208284031215611aff57611afe6111cc565b5b6000611b0d848285016114b6565b91505092915050565b600081519050919050565b600082825260208201905092915050565b6000819050602082019050919050565b600060c083016000830151611b5a60008601826118de565b506020830151611b6d60208601826118de565b5060408301518482036040860152611b85828261169c565b91505060608301518482036060860152611b9f828261193e565b91505060808301518482036080860152611bb9828261193e565b91505060a0830151611bce60a086018261199c565b508091505092915050565b6000611be58383611b42565b905092915050565b6000602082019050919050565b6000611c0582611b16565b611c0f8185611b21565b935083602082028501611c2185611b32565b8060005b85811015611c5d5784840389528151611c3e8582611bd9565b9450611c4983611bed565b925060208a01995050600181019050611c25565b50829750879550505050505092915050565b60006020820190508181036000830152611c898184611bfa565b905092915050565b7f536f636b65742069732072657175697265640000000000000000000000000000600082015250565b6000611cc7601283611743565b9150611cd282611c91565b602082019050919050565b60006020820190508181036000830152611cf681611cba565b9050919050565b7f4e487b7100000000000000000000000000000000000000000000000000000000600052602260045260246000fd5b60006002820490506001821680611d4457607f821691505b602082108103611d5757611d56611cfd565b5b50919050565b60008190508160005260206000209050919050565b60006020601f8301049050919050565b600082821b905092915050565b600060088302611dbf7fffffffffffffffffffffffffffffffffffffffffffffffffffffffffffffffff82611d82565b611dc98683611d82565b95508019841693508086168417925050509392505050565b6000819050919050565b6000611e06611e01611dfc8461136f565b611de1565b61136f565b9050919050565b6000819050919050565b611e2083611deb565b611e34611e2c82611e0d565b848454611d8f565b825550505050565b600090565b611e49611e3c565b611e54818484611e17565b505050565b5b81811015611e7857611e6d600082611e41565b600181019050611e5a565b5050565b601f821115611ebd57611e8e81611d5d565b611e9784611d72565b81016020851015611ea6578190505b611eba611eb285611d72565b830182611e59565b50505b505050565b600082821c905092915050565b6000611ee060001984600802611ec2565b1980831691505092915050565b6000611ef98383611ecf565b9150826002028217905092915050565b611f1282611656565b67ffffffffffffffff811115611f2b57611f2a6111f1565b5b611f358254611d2c565b611f40828285611e7c565b600060209050601f831160018114611f735760008415611f61578287015190505b611f6b8582611eed565b865550611fd3565b601f198416611f8186611d5d565b60005b82811015611fa957848901518255600182019150602085019450602081019050611f84565b86831015611fc65784890151611fc2601f891682611ecf565b8355505b6001600288020188555050505b505050505050565b7f4e487b7100000000000000000000000000000000000000000000000000000000600052601160045260246000fd5b60006120158261136f565b91506120208361136f565b925082820390508181111561203857612037611fdb565b5b92915050565b60006120498261136f565b91506120548361136f565b92508282026120628161136f565b9150828204841483151761207957612078611fdb565b5b5092915050565b7f496e73756666696369656e742066756e64730000000000000000000000000000600082015250565b60006120b6601283611743565b91506120c182612080565b602082019050919050565b600060208201905081810360008301526120e5816120a9565b9050919050565b7f4e487b7100000000000000000000000000000000000000000000000000000000600052603260045260246000fd5b7f4e487b7100000000000000000000000000000000000000000000000000000000600052601260045260246000fd5b60006121558261136f565b91506121608361136f565b9250826121705761216f61211b565b5b828204905092915050565b60006121868261136f565b91507fffffffffffffffffffffffffffffffffffffffffffffffffffffffffffffffff82036121b8576121b7611fdb565b5b600182019050919050565b600060408201905081810360008301526121dd8185611754565b90506121ec6020830184611a8e565b9392505050565b7f4e487b7100000000000000000000000000000000000000000000000000000000600052605160045260246000fdfea264697066735822122088f6c50bfb18995cd5dcf06dcf82e4ee7706217bf23e973e7b8dd5a6844b5b6964736f6c634300081b0033",
  "linkReferences": {},
  "deployedLinkReferences": {}
}