{
  "_format": "hh-sol-artifact-1",
  "contractName": "StorageSharing",
  "sourceName": "contracts/StorageSharing.sol",
  "abi": [
    {
      "inputs": [
        {
          "internalType": "uint256",
          "name": "_priceInWeiPerByte",
          "type": "uint256"
        }
      ],
      "stateMutability": "nonpayable",
      "type": "constructor"
    },
    {
      "anonymous": false,
      "inputs": [
        {
          "indexed": true,
          "internalType": "uint256",
          "name": "id",
          "type": "uint256"
        }
      ],
      "name": "ServerCreated",
      "type": "event"
    },
    {
      "inputs": [],
      "name": "priceInWeiPerByte",
      "outputs": [
        {
          "internalType": "uint256",
          "name": "",
          "type": "uint256"
        }
      ],
      "stateMutability": "view",
      "type": "function"
    },
    {
      "inputs": [
        {
          "internalType": "string",
          "name": "_socket",
          "type": "string"
        }
      ],
      "name": "publishServer",
      "outputs": [],
      "stateMutability": "nonpayable",
      "type": "function"
    },
    {
      "inputs": [
        {
          "internalType": "uint256",
          "name": "",
          "type": "uint256"
        }
      ],
      "name": "servers",
      "outputs": [
        {
          "internalType": "address payable",
          "name": "owner",
          "type": "address"
        },
        {
          "internalType": "string",
          "name": "socket",
          "type": "string"
        }
      ],
      "stateMutability": "view",
      "type": "function"
    }
  ],
  "bytecode": "0x6080604052348015600f57600080fd5b50604051610c28380380610c288339818101604052810190602f91906071565b80600081905550506099565b600080fd5b6000819050919050565b6051816040565b8114605b57600080fd5b50565b600081519050606b81604a565b92915050565b6000602082840312156084576083603b565b5b6000609084828501605e565b91505092915050565b610b80806100a86000396000f3fe608060405234801561001057600080fd5b50600436106100415760003560e01c8063092e9b56146100465780635cf0f357146100625780637aaa789f14610093575b600080fd5b610060600480360381019061005b9190610557565b6100b1565b005b61007c600480360381019061007791906105d6565b61022f565b60405161008a9291906106c3565b60405180910390f35b61009b61030b565b6040516100a89190610702565b60405180910390f35b60008151116100f5576040517f08c379a00000000000000000000000000000000000000000000000000000000081526004016100ec90610769565b60405180910390fd5b600060405180604001604052803373ffffffffffffffffffffffffffffffffffffffff168152602001838152509050600181908060018154018082558091505060019003906000526020600020906002020160009091909190915060008201518160000160006101000a81548173ffffffffffffffffffffffffffffffffffffffff021916908373ffffffffffffffffffffffffffffffffffffffff16021790555060208201518160010190816101ac9190610995565b5050506101ee6040518060400160405280601b81526020017f5075626c6963207365727665722063726561746564206279202573000000000081525033610311565b600180805490506101ff9190610a96565b7fdd5f635dabf126a19b738864921845bd6ea6d7beab818673af02d26417146d7360405160405180910390a25050565b6001818154811061023f57600080fd5b90600052602060002090600202016000915090508060000160009054906101000a900473ffffffffffffffffffffffffffffffffffffffff1690806001018054610288906107b8565b80601f01602080910402602001604051908101604052809291908181526020018280546102b4906107b8565b80156103015780601f106102d657610100808354040283529160200191610301565b820191906000526020600020905b8154815290600101906020018083116102e457829003601f168201915b5050505050905082565b60005481565b6103a98282604051602401610327929190610aeb565b6040516020818303038152906040527f319af333000000000000000000000000000000000000000000000000000000007bffffffffffffffffffffffffffffffffffffffffffffffffffffffff19166020820180517bffffffffffffffffffffffffffffffffffffffffffffffffffffffff83818316178352505050506103ad565b5050565b6103c4816103bc6103c76103e8565b63ffffffff16565b50565b60006a636f6e736f6c652e6c6f679050600080835160208501845afa505050565b6103f3819050919050565b6103fb610b1b565b565b6000604051905090565b600080fd5b600080fd5b600080fd5b600080fd5b6000601f19601f8301169050919050565b7f4e487b7100000000000000000000000000000000000000000000000000000000600052604160045260246000fd5b6104648261041b565b810181811067ffffffffffffffff821117156104835761048261042c565b5b80604052505050565b60006104966103fd565b90506104a2828261045b565b919050565b600067ffffffffffffffff8211156104c2576104c161042c565b5b6104cb8261041b565b9050602081019050919050565b82818337600083830152505050565b60006104fa6104f5846104a7565b61048c565b90508281526020810184848401111561051657610515610416565b5b6105218482856104d8565b509392505050565b600082601f83011261053e5761053d610411565b5b813561054e8482602086016104e7565b91505092915050565b60006020828403121561056d5761056c610407565b5b600082013567ffffffffffffffff81111561058b5761058a61040c565b5b61059784828501610529565b91505092915050565b6000819050919050565b6105b3816105a0565b81146105be57600080fd5b50565b6000813590506105d0816105aa565b92915050565b6000602082840312156105ec576105eb610407565b5b60006105fa848285016105c1565b91505092915050565b600073ffffffffffffffffffffffffffffffffffffffff82169050919050565b600061062e82610603565b9050919050565b61063e81610623565b82525050565b600081519050919050565b600082825260208201905092915050565b60005b8381101561067e578082015181840152602081019050610663565b60008484015250505050565b600061069582610644565b61069f818561064f565b93506106af818560208601610660565b6106b88161041b565b840191505092915050565b60006040820190506106d86000830185610635565b81810360208301526106ea818461068a565b90509392505050565b6106fc816105a0565b82525050565b600060208201905061071760008301846106f3565b92915050565b7f536f636b65742069732072657175697265640000000000000000000000000000600082015250565b600061075360128361064f565b915061075e8261071d565b602082019050919050565b6000602082019050818103600083015261078281610746565b9050919050565b7f4e487b7100000000000000000000000000000000000000000000000000000000600052602260045260246000fd5b600060028204905060018216806107d057607f821691505b6020821081036107e3576107e2610789565b5b50919050565b60008190508160005260206000209050919050565b60006020601f8301049050919050565b600082821b905092915050565b60006008830261084b7fffffffffffffffffffffffffffffffffffffffffffffffffffffffffffffffff8261080e565b610855868361080e565b95508019841693508086168417925050509392505050565b6000819050919050565b600061089261088d610888846105a0565b61086d565b6105a0565b9050919050565b6000819050919050565b6108ac83610877565b6108c06108b882610899565b84845461081b565b825550505050565b600090565b6108d56108c8565b6108e08184846108a3565b505050565b5b81811015610904576108f96000826108cd565b6001810190506108e6565b5050565b601f8211156109495761091a816107e9565b610923846107fe565b81016020851015610932578190505b61094661093e856107fe565b8301826108e5565b50505b505050565b600082821c905092915050565b600061096c6000198460080261094e565b1980831691505092915050565b6000610985838361095b565b9150826002028217905092915050565b61099e82610644565b67ffffffffffffffff8111156109b7576109b661042c565b5b6109c182546107b8565b6109cc828285610908565b600060209050601f8311600181146109ff57600084156109ed578287015190505b6109f78582610979565b865550610a5f565b601f198416610a0d866107e9565b60005b82811015610a3557848901518255600182019150602085019450602081019050610a10565b86831015610a525784890151610a4e601f89168261095b565b8355505b6001600288020188555050505b505050505050565b7f4e487b7100000000000000000000000000000000000000000000000000000000600052601160045260246000fd5b6000610aa1826105a0565b9150610aac836105a0565b9250828203905081811115610ac457610ac3610a67565b5b92915050565b6000610ad582610603565b9050919050565b610ae581610aca565b82525050565b60006040820190508181036000830152610b05818561068a565b9050610b146020830184610adc565b9392505050565b7f4e487b7100000000000000000000000000000000000000000000000000000000600052605160045260246000fdfea264697066735822122026ce2d651c3abaf6f7591036aacb4ccadfea9dbd55e655f152494c5033ebd2fe64736f6c634300081b0033",
  "linkReferences": {},
  "deployedLinkReferences": {}
}