{
  "_format": "hh-sol-artifact-1",
  "contractName": "StorageSharing",
  "sourceName": "contracts/StorageSharing.sol",
  "abi": [
    {
      "inputs": [
        {
          "internalType": "uint256",
          "name": "_priceInWeiPerByte",
          "type": "uint256"
        }
      ],
      "stateMutability": "nonpayable",
      "type": "constructor"
    },
    {
      "anonymous": false,
      "inputs": [
        {
          "indexed": true,
          "internalType": "uint256",
          "name": "id",
          "type": "uint256"
        }
      ],
      "name": "ServerCreated",
      "type": "event"
    },
    {
      "inputs": [
        {
          "components": [
            {
              "internalType": "uint256",
              "name": "id",
              "type": "uint256"
            },
            {
              "internalType": "uint256",
              "name": "size",
              "type": "uint256"
            },
            {
              "internalType": "string",
              "name": "name",
              "type": "string"
            },
            {
              "internalType": "uint256[]",
              "name": "serverIds",
              "type": "uint256[]"
            },
            {
              "internalType": "uint256[]",
              "name": "blockHashes",
              "type": "uint256[]"
            },
            {
              "internalType": "address",
              "name": "user",
              "type": "address"
            }
          ],
          "internalType": "struct StorageSharing.FileMetadata",
          "name": "fileMetadata",
          "type": "tuple"
        }
      ],
      "name": "buyStorage",
      "outputs": [],
      "stateMutability": "payable",
      "type": "function"
    },
    {
      "inputs": [
        {
          "internalType": "uint256",
          "name": "",
          "type": "uint256"
        }
      ],
      "name": "fileMetadataIdByHash",
      "outputs": [
        {
          "internalType": "uint256",
          "name": "",
          "type": "uint256"
        }
      ],
      "stateMutability": "view",
      "type": "function"
    },
    {
      "inputs": [
        {
          "internalType": "uint256",
          "name": "",
          "type": "uint256"
        }
      ],
      "name": "fileMetadatas",
      "outputs": [
        {
          "internalType": "uint256",
          "name": "id",
          "type": "uint256"
        },
        {
          "internalType": "uint256",
          "name": "size",
          "type": "uint256"
        },
        {
          "internalType": "string",
          "name": "name",
          "type": "string"
        },
        {
          "internalType": "address",
          "name": "user",
          "type": "address"
        }
      ],
      "stateMutability": "view",
      "type": "function"
    },
    {
      "inputs": [
        {
          "internalType": "uint256",
          "name": "id",
          "type": "uint256"
        }
      ],
      "name": "getFileMetadata",
      "outputs": [
        {
          "components": [
            {
              "internalType": "uint256",
              "name": "id",
              "type": "uint256"
            },
            {
              "internalType": "uint256",
              "name": "size",
              "type": "uint256"
            },
            {
              "internalType": "string",
              "name": "name",
              "type": "string"
            },
            {
              "internalType": "uint256[]",
              "name": "serverIds",
              "type": "uint256[]"
            },
            {
              "internalType": "uint256[]",
              "name": "blockHashes",
              "type": "uint256[]"
            },
            {
              "internalType": "address",
              "name": "user",
              "type": "address"
            }
          ],
          "internalType": "struct StorageSharing.FileMetadata",
          "name": "",
          "type": "tuple"
        }
      ],
      "stateMutability": "view",
      "type": "function"
    },
    {
      "inputs": [
        {
          "internalType": "uint256",
          "name": "id",
          "type": "uint256"
        }
      ],
      "name": "getServer",
      "outputs": [
        {
          "components": [
            {
              "internalType": "address payable",
              "name": "owner",
              "type": "address"
            },
            {
              "internalType": "string",
              "name": "socket",
              "type": "string"
            }
          ],
          "internalType": "struct StorageSharing.Server",
          "name": "",
          "type": "tuple"
        }
      ],
      "stateMutability": "view",
      "type": "function"
    },
    {
      "inputs": [
        {
          "internalType": "address",
          "name": "user",
          "type": "address"
        }
      ],
      "name": "listFileMetadatas",
      "outputs": [
        {
          "components": [
            {
              "internalType": "uint256",
              "name": "id",
              "type": "uint256"
            },
            {
              "internalType": "uint256",
              "name": "size",
              "type": "uint256"
            },
            {
              "internalType": "string",
              "name": "name",
              "type": "string"
            },
            {
              "internalType": "uint256[]",
              "name": "serverIds",
              "type": "uint256[]"
            },
            {
              "internalType": "uint256[]",
              "name": "blockHashes",
              "type": "uint256[]"
            },
            {
              "internalType": "address",
              "name": "user",
              "type": "address"
            }
          ],
          "internalType": "struct StorageSharing.FileMetadata[]",
          "name": "",
          "type": "tuple[]"
        }
      ],
      "stateMutability": "view",
      "type": "function"
    },
    {
      "inputs": [],
      "name": "listServers",
      "outputs": [
        {
          "components": [
            {
              "internalType": "address payable",
              "name": "owner",
              "type": "address"
            },
            {
              "internalType": "string",
              "name": "socket",
              "type": "string"
            }
          ],
          "internalType": "struct StorageSharing.Server[]",
          "name": "",
          "type": "tuple[]"
        }
      ],
      "stateMutability": "view",
      "type": "function"
    },
    {
      "inputs": [],
      "name": "priceInWeiPerByte",
      "outputs": [
        {
          "internalType": "uint256",
          "name": "",
          "type": "uint256"
        }
      ],
      "stateMutability": "view",
      "type": "function"
    },
    {
      "inputs": [
        {
          "internalType": "string",
          "name": "_socket",
          "type": "string"
        }
      ],
      "name": "publishServer",
      "outputs": [],
      "stateMutability": "nonpayable",
      "type": "function"
    },
    {
      "inputs": [
        {
          "internalType": "uint256",
          "name": "",
          "type": "uint256"
        }
      ],
      "name": "servers",
      "outputs": [
        {
          "internalType": "address payable",
          "name": "owner",
          "type": "address"
        },
        {
          "internalType": "string",
          "name": "socket",
          "type": "string"
        }
      ],
      "stateMutability": "view",
      "type": "function"
    }
  ],
  "bytecode": "0x6080604052348015600f57600080fd5b506040516123f83803806123f88339818101604052810190602f91906071565b80600081905550506099565b600080fd5b6000819050919050565b6051816040565b8114605b57600080fd5b50565b600081519050606b81604a565b92915050565b6000602082840312156084576083603b565b5b6000609084828501605e565b91505092915050565b612350806100a86000396000f3fe6080604052600436106100915760003560e01c80636ccb28e2116100595780636ccb28e2146101815780637aaa789f146101be5780638bf797b1146101e957806392d1bf2a14610229578063ab994cde1461026657610091565b8063092e9b56146100965780632091acc5146100bf578063546b270d146100db5780635cf0f3571461011857806367f4540714610156575b600080fd5b3480156100a257600080fd5b506100bd60048036038101906100b891906113e0565b6102a3565b005b6100d960048036038101906100d49190611683565b610421565b005b3480156100e757600080fd5b5061010260048036038101906100fd91906116cc565b610779565b60405161010f91906117d6565b60405180910390f35b34801561012457600080fd5b5061013f600480360381019061013a91906116cc565b61089d565b60405161014d929190611851565b60405180910390f35b34801561016257600080fd5b5061016b610979565b6040516101789190611980565b60405180910390f35b34801561018d57600080fd5b506101a860048036038101906101a391906116cc565b610ac0565b6040516101b59190611b06565b60405180910390f35b3480156101ca57600080fd5b506101d3610ca8565b6040516101e09190611b37565b60405180910390f35b3480156101f557600080fd5b50610210600480360381019061020b91906116cc565b610cae565b6040516102209493929190611b61565b60405180910390f35b34801561023557600080fd5b50610250600480360381019061024b91906116cc565b610d96565b60405161025d9190611b37565b60405180910390f35b34801561027257600080fd5b5061028d60048036038101906102889190611bad565b610dae565b60405161029a9190611d33565b60405180910390f35b60008151116102e7576040517f08c379a00000000000000000000000000000000000000000000000000000000081526004016102de90611da1565b60405180910390fd5b600060405180604001604052803373ffffffffffffffffffffffffffffffffffffffff168152602001838152509050600181908060018154018082558091505060019003906000526020600020906002020160009091909190915060008201518160000160006101000a81548173ffffffffffffffffffffffffffffffffffffffff021916908373ffffffffffffffffffffffffffffffffffffffff160217905550602082015181600101908161039e9190611fcd565b5050506103e06040518060400160405280601b81526020017f5075626c69632073657276657220637265617465642062792025730000000000815250336110b4565b600180805490506103f191906120ce565b7fdd5f635dabf126a19b738864921845bd6ea6d7beab818673af02d26417146d7360405160405180910390a25050565b6000805482602001516104349190612102565b9050803414610478576040517f08c379a000000000000000000000000000000000000000000000000000000000815260040161046f90612190565b60405180910390fd5b60028054905082600001818152505060005b8260600151518110156106375760006001846060015183815181106104b2576104b16121b0565b5b6020026020010151815481106104cb576104ca6121b0565b5b90600052602060002090600202016040518060400160405290816000820160009054906101000a900473ffffffffffffffffffffffffffffffffffffffff1673ffffffffffffffffffffffffffffffffffffffff1673ffffffffffffffffffffffffffffffffffffffff16815260200160018201805461054a90611df0565b80601f016020809104026020016040519081016040528092919081815260200182805461057690611df0565b80156105c35780601f10610598576101008083540402835291602001916105c3565b820191906000526020600020905b8154815290600101906020018083116105a657829003601f168201915b5050505050815250509050806000015173ffffffffffffffffffffffffffffffffffffffff166108fc856060015151856105fd919061220e565b9081150290604051600060405180830381858888f19350505050158015610628573d6000803e3d6000fd5b5050808060010191505061048a565b5060005b82608001515181101561069b5760018360000151610659919061223f565b6003600085608001518481518110610674576106736121b0565b5b6020026020010151815260200190815260200160002081905550808060010191505061063b565b506002829080600181540180825580915050600190039060005260206000209060060201600090919091909150600082015181600001556020820151816001015560408201518160020190816106f19190611fcd565b50606082015181600301908051906020019061070e929190611196565b50608082015181600401908051906020019061072b929190611196565b5060a08201518160050160006101000a81548173ffffffffffffffffffffffffffffffffffffffff021916908373ffffffffffffffffffffffffffffffffffffffff16021790555050505050565b6107816111e3565b60018281548110610795576107946121b0565b5b90600052602060002090600202016040518060400160405290816000820160009054906101000a900473ffffffffffffffffffffffffffffffffffffffff1673ffffffffffffffffffffffffffffffffffffffff1673ffffffffffffffffffffffffffffffffffffffff16815260200160018201805461081490611df0565b80601f016020809104026020016040519081016040528092919081815260200182805461084090611df0565b801561088d5780601f106108625761010080835404028352916020019161088d565b820191906000526020600020905b81548152906001019060200180831161087057829003601f168201915b5050505050815250509050919050565b600181815481106108ad57600080fd5b90600052602060002090600202016000915090508060000160009054906101000a900473ffffffffffffffffffffffffffffffffffffffff16908060010180546108f690611df0565b80601f016020809104026020016040519081016040528092919081815260200182805461092290611df0565b801561096f5780601f106109445761010080835404028352916020019161096f565b820191906000526020600020905b81548152906001019060200180831161095257829003601f168201915b5050505050905082565b60606001805480602002602001604051908101604052809291908181526020016000905b82821015610ab757838290600052602060002090600202016040518060400160405290816000820160009054906101000a900473ffffffffffffffffffffffffffffffffffffffff1673ffffffffffffffffffffffffffffffffffffffff1673ffffffffffffffffffffffffffffffffffffffff168152602001600182018054610a2690611df0565b80601f0160208091040260200160405190810160405280929190818152602001828054610a5290611df0565b8015610a9f5780601f10610a7457610100808354040283529160200191610a9f565b820191906000526020600020905b815481529060010190602001808311610a8257829003601f168201915b5050505050815250508152602001906001019061099d565b50505050905090565b610ac8611213565b60028281548110610adc57610adb6121b0565b5b90600052602060002090600602016040518060c00160405290816000820154815260200160018201548152602001600282018054610b1990611df0565b80601f0160208091040260200160405190810160405280929190818152602001828054610b4590611df0565b8015610b925780601f10610b6757610100808354040283529160200191610b92565b820191906000526020600020905b815481529060010190602001808311610b7557829003601f168201915b5050505050815260200160038201805480602002602001604051908101604052809291908181526020018280548015610bea57602002820191906000526020600020905b815481526020019060010190808311610bd6575b5050505050815260200160048201805480602002602001604051908101604052809291908181526020018280548015610c4257602002820191906000526020600020905b815481526020019060010190808311610c2e575b505050505081526020016005820160009054906101000a900473ffffffffffffffffffffffffffffffffffffffff1673ffffffffffffffffffffffffffffffffffffffff1673ffffffffffffffffffffffffffffffffffffffff16815250509050919050565b60005481565b60028181548110610cbe57600080fd5b9060005260206000209060060201600091509050806000015490806001015490806002018054610ced90611df0565b80601f0160208091040260200160405190810160405280929190818152602001828054610d1990611df0565b8015610d665780601f10610d3b57610100808354040283529160200191610d66565b820191906000526020600020905b815481529060010190602001808311610d4957829003601f168201915b5050505050908060050160009054906101000a900473ffffffffffffffffffffffffffffffffffffffff16905084565b60036020528060005260406000206000915090505481565b6060600060028054905067ffffffffffffffff811115610dd157610dd06112b5565b5b604051908082528060200260200182016040528015610e0a57816020015b610df7611213565b815260200190600190039081610def5790505b5090506000805b6002805490508110156110a9578473ffffffffffffffffffffffffffffffffffffffff1660028281548110610e4957610e486121b0565b5b906000526020600020906006020160050160009054906101000a900473ffffffffffffffffffffffffffffffffffffffff1673ffffffffffffffffffffffffffffffffffffffff160361109c5760028181548110610eaa57610ea96121b0565b5b90600052602060002090600602016040518060c00160405290816000820154815260200160018201548152602001600282018054610ee790611df0565b80601f0160208091040260200160405190810160405280929190818152602001828054610f1390611df0565b8015610f605780601f10610f3557610100808354040283529160200191610f60565b820191906000526020600020905b815481529060010190602001808311610f4357829003601f168201915b5050505050815260200160038201805480602002602001604051908101604052809291908181526020018280548015610fb857602002820191906000526020600020905b815481526020019060010190808311610fa4575b505050505081526020016004820180548060200260200160405190810160405280929190818152602001828054801561101057602002820191906000526020600020905b815481526020019060010190808311610ffc575b505050505081526020016005820160009054906101000a900473ffffffffffffffffffffffffffffffffffffffff1673ffffffffffffffffffffffffffffffffffffffff1673ffffffffffffffffffffffffffffffffffffffff1681525050838381518110611082576110816121b0565b5b6020026020010181905250818061109890612273565b9250505b8080600101915050610e11565b508192505050919050565b61114c82826040516024016110ca9291906122bb565b6040516020818303038152906040527f319af333000000000000000000000000000000000000000000000000000000007bffffffffffffffffffffffffffffffffffffffffffffffffffffffff19166020820180517bffffffffffffffffffffffffffffffffffffffffffffffffffffffff8381831617835250505050611150565b5050565b6111678161115f61116a61118b565b63ffffffff16565b50565b60006a636f6e736f6c652e6c6f679050600080835160208501845afa505050565b61125f819050919050565b8280548282559060005260206000209081019282156111d2579160200282015b828111156111d15782518255916020019190600101906111b6565b5b5090506111df9190611269565b5090565b6040518060400160405280600073ffffffffffffffffffffffffffffffffffffffff168152602001606081525090565b6040518060c001604052806000815260200160008152602001606081526020016060815260200160608152602001600073ffffffffffffffffffffffffffffffffffffffff1681525090565b6112676122eb565b565b5b8082111561128257600081600090555060010161126a565b5090565b6000604051905090565b600080fd5b600080fd5b600080fd5b600080fd5b6000601f19601f8301169050919050565b7f4e487b7100000000000000000000000000000000000000000000000000000000600052604160045260246000fd5b6112ed826112a4565b810181811067ffffffffffffffff8211171561130c5761130b6112b5565b5b80604052505050565b600061131f611286565b905061132b82826112e4565b919050565b600067ffffffffffffffff82111561134b5761134a6112b5565b5b611354826112a4565b9050602081019050919050565b82818337600083830152505050565b600061138361137e84611330565b611315565b90508281526020810184848401111561139f5761139e61129f565b5b6113aa848285611361565b509392505050565b600082601f8301126113c7576113c661129a565b5b81356113d7848260208601611370565b91505092915050565b6000602082840312156113f6576113f5611290565b5b600082013567ffffffffffffffff81111561141457611413611295565b5b611420848285016113b2565b91505092915050565b600080fd5b600080fd5b6000819050919050565b61144681611433565b811461145157600080fd5b50565b6000813590506114638161143d565b92915050565b600067ffffffffffffffff821115611484576114836112b5565b5b602082029050602081019050919050565b600080fd5b60006114ad6114a884611469565b611315565b905080838252602082019050602084028301858111156114d0576114cf611495565b5b835b818110156114f957806114e58882611454565b8452602084019350506020810190506114d2565b5050509392505050565b600082601f8301126115185761151761129a565b5b813561152884826020860161149a565b91505092915050565b600073ffffffffffffffffffffffffffffffffffffffff82169050919050565b600061155c82611531565b9050919050565b61156c81611551565b811461157757600080fd5b50565b60008135905061158981611563565b92915050565b600060c082840312156115a5576115a4611429565b5b6115af60c0611315565b905060006115bf84828501611454565b60008301525060206115d384828501611454565b602083015250604082013567ffffffffffffffff8111156115f7576115f661142e565b5b611603848285016113b2565b604083015250606082013567ffffffffffffffff8111156116275761162661142e565b5b61163384828501611503565b606083015250608082013567ffffffffffffffff8111156116575761165661142e565b5b61166384828501611503565b60808301525060a06116778482850161157a565b60a08301525092915050565b60006020828403121561169957611698611290565b5b600082013567ffffffffffffffff8111156116b7576116b6611295565b5b6116c38482850161158f565b91505092915050565b6000602082840312156116e2576116e1611290565b5b60006116f084828501611454565b91505092915050565b600061170482611531565b9050919050565b611714816116f9565b82525050565b600081519050919050565b600082825260208201905092915050565b60005b83811015611754578082015181840152602081019050611739565b60008484015250505050565b600061176b8261171a565b6117758185611725565b9350611785818560208601611736565b61178e816112a4565b840191505092915050565b60006040830160008301516117b1600086018261170b565b50602083015184820360208601526117c98282611760565b9150508091505092915050565b600060208201905081810360008301526117f08184611799565b905092915050565b611801816116f9565b82525050565b600082825260208201905092915050565b60006118238261171a565b61182d8185611807565b935061183d818560208601611736565b611846816112a4565b840191505092915050565b600060408201905061186660008301856117f8565b81810360208301526118788184611818565b90509392505050565b600081519050919050565b600082825260208201905092915050565b6000819050602082019050919050565b60006040830160008301516118c5600086018261170b565b50602083015184820360208601526118dd8282611760565b9150508091505092915050565b60006118f683836118ad565b905092915050565b6000602082019050919050565b600061191682611881565b611920818561188c565b9350836020820285016119328561189d565b8060005b8581101561196e578484038952815161194f85826118ea565b945061195a836118fe565b925060208a01995050600181019050611936565b50829750879550505050505092915050565b6000602082019050818103600083015261199a818461190b565b905092915050565b6119ab81611433565b82525050565b600081519050919050565b600082825260208201905092915050565b6000819050602082019050919050565b60006119e983836119a2565b60208301905092915050565b6000602082019050919050565b6000611a0d826119b1565b611a1781856119bc565b9350611a22836119cd565b8060005b83811015611a53578151611a3a88826119dd565b9750611a45836119f5565b925050600181019050611a26565b5085935050505092915050565b611a6981611551565b82525050565b600060c083016000830151611a8760008601826119a2565b506020830151611a9a60208601826119a2565b5060408301518482036040860152611ab28282611760565b91505060608301518482036060860152611acc8282611a02565b91505060808301518482036080860152611ae68282611a02565b91505060a0830151611afb60a0860182611a60565b508091505092915050565b60006020820190508181036000830152611b208184611a6f565b905092915050565b611b3181611433565b82525050565b6000602082019050611b4c6000830184611b28565b92915050565b611b5b81611551565b82525050565b6000608082019050611b766000830187611b28565b611b836020830186611b28565b8181036040830152611b958185611818565b9050611ba46060830184611b52565b95945050505050565b600060208284031215611bc357611bc2611290565b5b6000611bd18482850161157a565b91505092915050565b600081519050919050565b600082825260208201905092915050565b6000819050602082019050919050565b600060c083016000830151611c1e60008601826119a2565b506020830151611c3160208601826119a2565b5060408301518482036040860152611c498282611760565b91505060608301518482036060860152611c638282611a02565b91505060808301518482036080860152611c7d8282611a02565b91505060a0830151611c9260a0860182611a60565b508091505092915050565b6000611ca98383611c06565b905092915050565b6000602082019050919050565b6000611cc982611bda565b611cd38185611be5565b935083602082028501611ce585611bf6565b8060005b85811015611d215784840389528151611d028582611c9d565b9450611d0d83611cb1565b925060208a01995050600181019050611ce9565b50829750879550505050505092915050565b60006020820190508181036000830152611d4d8184611cbe565b905092915050565b7f536f636b65742069732072657175697265640000000000000000000000000000600082015250565b6000611d8b601283611807565b9150611d9682611d55565b602082019050919050565b60006020820190508181036000830152611dba81611d7e565b9050919050565b7f4e487b7100000000000000000000000000000000000000000000000000000000600052602260045260246000fd5b60006002820490506001821680611e0857607f821691505b602082108103611e1b57611e1a611dc1565b5b50919050565b60008190508160005260206000209050919050565b60006020601f8301049050919050565b600082821b905092915050565b600060088302611e837fffffffffffffffffffffffffffffffffffffffffffffffffffffffffffffffff82611e46565b611e8d8683611e46565b95508019841693508086168417925050509392505050565b6000819050919050565b6000611eca611ec5611ec084611433565b611ea5565b611433565b9050919050565b6000819050919050565b611ee483611eaf565b611ef8611ef082611ed1565b848454611e53565b825550505050565b600090565b611f0d611f00565b611f18818484611edb565b505050565b5b81811015611f3c57611f31600082611f05565b600181019050611f1e565b5050565b601f821115611f8157611f5281611e21565b611f5b84611e36565b81016020851015611f6a578190505b611f7e611f7685611e36565b830182611f1d565b50505b505050565b600082821c905092915050565b6000611fa460001984600802611f86565b1980831691505092915050565b6000611fbd8383611f93565b9150826002028217905092915050565b611fd68261171a565b67ffffffffffffffff811115611fef57611fee6112b5565b5b611ff98254611df0565b612004828285611f40565b600060209050601f8311600181146120375760008415612025578287015190505b61202f8582611fb1565b865550612097565b601f19841661204586611e21565b60005b8281101561206d57848901518255600182019150602085019450602081019050612048565b8683101561208a5784890151612086601f891682611f93565b8355505b6001600288020188555050505b505050505050565b7f4e487b7100000000000000000000000000000000000000000000000000000000600052601160045260246000fd5b60006120d982611433565b91506120e483611433565b92508282039050818111156120fc576120fb61209f565b5b92915050565b600061210d82611433565b915061211883611433565b925082820261212681611433565b9150828204841483151761213d5761213c61209f565b5b5092915050565b7f496e73756666696369656e742066756e64730000000000000000000000000000600082015250565b600061217a601283611807565b915061218582612144565b602082019050919050565b600060208201905081810360008301526121a98161216d565b9050919050565b7f4e487b7100000000000000000000000000000000000000000000000000000000600052603260045260246000fd5b7f4e487b7100000000000000000000000000000000000000000000000000000000600052601260045260246000fd5b600061221982611433565b915061222483611433565b925082612234576122336121df565b5b828204905092915050565b600061224a82611433565b915061225583611433565b925082820190508082111561226d5761226c61209f565b5b92915050565b600061227e82611433565b91507fffffffffffffffffffffffffffffffffffffffffffffffffffffffffffffffff82036122b0576122af61209f565b5b600182019050919050565b600060408201905081810360008301526122d58185611818565b90506122e46020830184611b52565b9392505050565b7f4e487b7100000000000000000000000000000000000000000000000000000000600052605160045260246000fdfea264697066735822122043e2493127f729a6549d563bb2785ca8e412908dcd1c132f7f372432c4127a5064736f6c634300081b0033",
  "linkReferences": {},
  "deployedLinkReferences": {}
}